{
  "_format": "hh-sol-artifact-1",
  "contractName": "FusionCredit",
  "sourceName": "contracts/FusionCredit.sol",
  "abi": [
    {
      "inputs": [
        {
          "internalType": "contract IVerifier",
          "name": "_verifier",
          "type": "address"
        }
      ],
      "stateMutability": "nonpayable",
      "type": "constructor"
    },
    {
      "inputs": [
        {
          "internalType": "address",
          "name": "_addr",
          "type": "address"
        }
      ],
      "name": "getScore",
      "outputs": [
        {
          "internalType": "uint256",
          "name": "score",
          "type": "uint256"
        },
        {
          "internalType": "uint256",
          "name": "version",
          "type": "uint256"
        },
        {
          "internalType": "uint256",
          "name": "timestamp",
          "type": "uint256"
        }
      ],
      "stateMutability": "view",
      "type": "function"
    },
    {
      "inputs": [
        {
          "internalType": "address",
          "name": "",
          "type": "address"
        }
      ],
      "name": "scores",
      "outputs": [
        {
          "internalType": "uint16",
          "name": "score",
          "type": "uint16"
        },
        {
          "internalType": "uint16",
          "name": "version",
          "type": "uint16"
        },
        {
          "internalType": "uint48",
          "name": "timestamp",
          "type": "uint48"
        }
      ],
      "stateMutability": "view",
      "type": "function"
    },
    {
      "inputs": [
        {
          "internalType": "uint256",
          "name": "score",
          "type": "uint256"
        },
        {
          "internalType": "uint256",
          "name": "version",
          "type": "uint256"
        },
        {
          "internalType": "uint256",
          "name": "timestamp",
          "type": "uint256"
        },
        {
          "internalType": "uint256[8]",
          "name": "proof",
          "type": "uint256[8]"
        }
      ],
      "name": "setScore",
      "outputs": [],
      "stateMutability": "nonpayable",
      "type": "function"
    },
    {
      "inputs": [
        {
          "internalType": "contract IVerifier",
          "name": "_verifier",
          "type": "address"
        }
      ],
      "name": "setVerifier",
      "outputs": [],
      "stateMutability": "nonpayable",
      "type": "function"
    },
    {
      "inputs": [],
      "name": "verifier",
      "outputs": [
        {
          "internalType": "contract IVerifier",
          "name": "",
          "type": "address"
        }
      ],
      "stateMutability": "view",
      "type": "function"
    }
  ],
  "bytecode": "0x60806040523480156200001157600080fd5b50604051620016e6380380620016e68339818101604052810190620000379190620000d6565b336000806101000a81548173ffffffffffffffffffffffffffffffffffffffff021916908373ffffffffffffffffffffffffffffffffffffffff16021790555080600160006101000a81548173ffffffffffffffffffffffffffffffffffffffff021916908373ffffffffffffffffffffffffffffffffffffffff1602179055505062000164565b600081519050620000d0816200014a565b92915050565b600060208284031215620000e957600080fd5b6000620000f984828501620000bf565b91505092915050565b60006200010f826200012a565b9050919050565b6000620001238262000102565b9050919050565b600073ffffffffffffffffffffffffffffffffffffffff82169050919050565b620001558162000116565b81146200016157600080fd5b50565b61157280620001746000396000f3fe608060405234801561001057600080fd5b50600436106100575760003560e01c80632b7ac3f31461005c5780635437988d1461007a57806376dd110f14610096578063a9e5811e146100c8578063d47875d0146100e4575b600080fd5b610064610116565b604051610071919061111b565b60405180910390f35b610094600480360381019061008f9190610de4565b61013c565b005b6100b060048036038101906100ab9190610d92565b6101d8565b6040516100bf939291906111b6565b60405180910390f35b6100e260048036038101906100dd9190610e0d565b610230565b005b6100fe60048036038101906100f99190610d92565b610afe565b60405161010d93929190611208565b60405180910390f35b600160009054906101000a900473ffffffffffffffffffffffffffffffffffffffff1681565b60008054906101000a900473ffffffffffffffffffffffffffffffffffffffff1673ffffffffffffffffffffffffffffffffffffffff163373ffffffffffffffffffffffffffffffffffffffff161461019457600080fd5b80600160006101000a81548173ffffffffffffffffffffffffffffffffffffffff021916908373ffffffffffffffffffffffffffffffffffffffff16021790555050565b60026020528060005260406000206000915090508060000160009054906101000a900461ffff16908060000160029054906101000a900461ffff16908060000160049054906101000a900465ffffffffffff16905083565b61023984610bf2565b61024283610bf2565b61024b82610bf2565b61026a3373ffffffffffffffffffffffffffffffffffffffff16610bf2565b6102b1816000600881106102a7577f4e487b7100000000000000000000000000000000000000000000000000000000600052603260045260246000fd5b6020020151610bf2565b6102f8816001600881106102ee577f4e487b7100000000000000000000000000000000000000000000000000000000600052603260045260246000fd5b6020020151610bf2565b61033f81600260088110610335577f4e487b7100000000000000000000000000000000000000000000000000000000600052603260045260246000fd5b6020020151610bf2565b6103868160036008811061037c577f4e487b7100000000000000000000000000000000000000000000000000000000600052603260045260246000fd5b6020020151610bf2565b6103cd816004600881106103c3577f4e487b7100000000000000000000000000000000000000000000000000000000600052603260045260246000fd5b6020020151610bf2565b6104148160056008811061040a577f4e487b7100000000000000000000000000000000000000000000000000000000600052603260045260246000fd5b6020020151610bf2565b61045b81600660088110610451577f4e487b7100000000000000000000000000000000000000000000000000000000600052603260045260246000fd5b6020020151610bf2565b6104a281600760088110610498577f4e487b7100000000000000000000000000000000000000000000000000000000600052603260045260246000fd5b6020020151610bf2565b600073ffffffffffffffffffffffffffffffffffffffff16600160009054906101000a900473ffffffffffffffffffffffffffffffffffffffff1673ffffffffffffffffffffffffffffffffffffffff161415610534576040517f08c379a000000000000000000000000000000000000000000000000000000000815260040161052b90611156565b60405180910390fd5b6000600260003373ffffffffffffffffffffffffffffffffffffffff1673ffffffffffffffffffffffffffffffffffffffff1681526020019081526020016000206040518060600160405290816000820160009054906101000a900461ffff1661ffff1661ffff1681526020016000820160029054906101000a900461ffff1661ffff1661ffff1681526020016000820160049054906101000a900465ffffffffffff1665ffffffffffff1665ffffffffffff16815250509050806020015161ffff16841015610639576040517f08c379a000000000000000000000000000000000000000000000000000000000815260040161063090611136565b60405180910390fd5b806040015165ffffffffffff168311610687576040517f08c379a000000000000000000000000000000000000000000000000000000000815260040161067e90611196565b60405180910390fd5b600060405180608001604052808781526020018681526020018581526020013373ffffffffffffffffffffffffffffffffffffffff1681525090506000604051806040016040528085600060088110610709577f4e487b7100000000000000000000000000000000000000000000000000000000600052603260045260246000fd5b602002015181526020018560016008811061074d577f4e487b7100000000000000000000000000000000000000000000000000000000600052603260045260246000fd5b60200201518152509050600060405180604001604052806040518060400160405280886002600881106107a9577f4e487b7100000000000000000000000000000000000000000000000000000000600052603260045260246000fd5b60200201518152602001886003600881106107ed577f4e487b7100000000000000000000000000000000000000000000000000000000600052603260045260246000fd5b6020020151815250815260200160405180604001604052808860046008811061083f577f4e487b7100000000000000000000000000000000000000000000000000000000600052603260045260246000fd5b6020020151815260200188600560088110610883577f4e487b7100000000000000000000000000000000000000000000000000000000600052603260045260246000fd5b6020020151815250815250905060006040518060400160405280876006600881106108d7577f4e487b7100000000000000000000000000000000000000000000000000000000600052603260045260246000fd5b602002015181526020018760076008811061091b577f4e487b7100000000000000000000000000000000000000000000000000000000600052603260045260246000fd5b60200201518152509050600160009054906101000a900473ffffffffffffffffffffffffffffffffffffffff1673ffffffffffffffffffffffffffffffffffffffff16635fe8c13b848484886040518563ffffffff1660e01b815260040161098694939291906110d4565b60206040518083038186803b15801561099e57600080fd5b505afa1580156109b2573d6000803e3d6000fd5b505050506040513d601f19601f820116820180604052508101906109d69190610dbb565b610a15576040517f08c379a0000000000000000000000000000000000000000000000000000000008152600401610a0c90611176565b60405180910390fd5b60405180606001604052808a61ffff1681526020018961ffff1681526020018865ffffffffffff16815250600260003373ffffffffffffffffffffffffffffffffffffffff1673ffffffffffffffffffffffffffffffffffffffff16815260200190815260200160002060008201518160000160006101000a81548161ffff021916908361ffff16021790555060208201518160000160026101000a81548161ffff021916908361ffff16021790555060408201518160000160046101000a81548165ffffffffffff021916908365ffffffffffff160217905550905050505050505050505050565b600080600080600260008673ffffffffffffffffffffffffffffffffffffffff1673ffffffffffffffffffffffffffffffffffffffff1681526020019081526020016000206040518060600160405290816000820160009054906101000a900461ffff1661ffff1661ffff1681526020016000820160029054906101000a900461ffff1661ffff1661ffff1681526020016000820160049054906101000a900465ffffffffffff1665ffffffffffff1665ffffffffffff168152505090508060000151816020015182604001518261ffff1692508161ffff1691508065ffffffffffff169050935093509350509193909250565b610c8881604051602401610c0691906111ed565b6040516020818303038152906040527ff5b1bba9000000000000000000000000000000000000000000000000000000007bffffffffffffffffffffffffffffffffffffffffffffffffffffffff19166020820180517bffffffffffffffffffffffffffffffffffffffffffffffffffffffff8381831617835250505050610c8b565b50565b60008151905060006a636f6e736f6c652e6c6f679050602083016000808483855afa5050505050565b6000610cc7610cc284611264565b61123f565b90508082856020860282011115610cdd57600080fd5b60005b85811015610d0d5781610cf38882610d7d565b845260208401935060208301925050600181019050610ce0565b5050509392505050565b600081359050610d26816114e0565b92915050565b600082601f830112610d3d57600080fd5b6008610d4a848285610cb4565b91505092915050565b600081519050610d62816114f7565b92915050565b600081359050610d778161150e565b92915050565b600081359050610d8c81611525565b92915050565b600060208284031215610da457600080fd5b6000610db284828501610d17565b91505092915050565b600060208284031215610dcd57600080fd5b6000610ddb84828501610d53565b91505092915050565b600060208284031215610df657600080fd5b6000610e0484828501610d68565b91505092915050565b6000806000806101608587031215610e2457600080fd5b6000610e3287828801610d7d565b9450506020610e4387828801610d7d565b9350506040610e5487828801610d7d565b9250506060610e6587828801610d2c565b91505092959194509250565b6000610e7d8383610ef8565b60408301905092915050565b6000610e9583836110a7565b60208301905092915050565b610eaa816112a8565b610eb481846112f0565b9250610ebf8261128a565b8060005b83811015610ef0578151610ed78782610e71565b9650610ee2836112c9565b925050600181019050610ec3565b505050505050565b610f01816112b3565b610f0b81846112fb565b9250610f1682611294565b8060005b83811015610f47578151610f2e8782610e89565b9650610f39836112d6565b925050600181019050610f1a565b505050505050565b610f58816112b3565b610f628184611306565b9250610f6d82611294565b8060005b83811015610f9e578151610f858782610e89565b9650610f90836112d6565b925050600181019050610f71565b505050505050565b610faf816112be565b610fb98184611311565b9250610fc48261129e565b8060005b83811015610ff5578151610fdc8782610e89565b9650610fe7836112e3565b925050600181019050610fc8565b505050505050565b611006816113a7565b82525050565b600061101960198361131c565b91506110248261143c565b602082019050919050565b600061103c60108361131c565b915061104782611465565b602082019050919050565b600061105f600f8361131c565b915061106a8261148e565b602082019050919050565b6000611082601b8361131c565b915061108d826114b7565b602082019050919050565b6110a18161135d565b82525050565b6110b08161138b565b82525050565b6110bf8161138b565b82525050565b6110ce81611395565b82525050565b6000610180820190506110ea6000830187610f4f565b6110f76040830186610ea1565b61110460c0830185610f4f565b611112610100830184610fa6565b95945050505050565b60006020820190506111306000830184610ffd565b92915050565b6000602082019050818103600083015261114f8161100c565b9050919050565b6000602082019050818103600083015261116f8161102f565b9050919050565b6000602082019050818103600083015261118f81611052565b9050919050565b600060208201905081810360008301526111af81611075565b9050919050565b60006060820190506111cb6000830186611098565b6111d86020830185611098565b6111e560408301846110c5565b949350505050565b600060208201905061120260008301846110b6565b92915050565b600060608201905061121d60008301866110b6565b61122a60208301856110b6565b61123760408301846110b6565b949350505050565b600061124961125a565b905061125582826113cb565b919050565b6000604051905090565b600067ffffffffffffffff82111561127f5761127e6113fc565b5b602082029050919050565b6000819050919050565b6000819050919050565b6000819050919050565b600060029050919050565b600060029050919050565b600060049050919050565b6000602082019050919050565b6000602082019050919050565b6000602082019050919050565b600081905092915050565b600081905092915050565b600081905092915050565b600081905092915050565b600082825260208201905092915050565b60006113388261136b565b9050919050565b60008115159050919050565b60006113568261132d565b9050919050565b600061ffff82169050919050565b600073ffffffffffffffffffffffffffffffffffffffff82169050919050565b6000819050919050565b600065ffffffffffff82169050919050565b60006113b2826113b9565b9050919050565b60006113c48261136b565b9050919050565b6113d48261142b565b810181811067ffffffffffffffff821117156113f3576113f26113fc565b5b80604052505050565b7f4e487b7100000000000000000000000000000000000000000000000000000000600052604160045260246000fd5b6000601f19601f8301169050919050565b7f43616e277420757365206561726c6965722076657273696f6e00000000000000600082015250565b7f5665726966696572206e6f742073657400000000000000000000000000000000600082015250565b7f50726f6f66206e6f742076616c69640000000000000000000000000000000000600082015250565b7f43616e277420757365206561726c6965722074696d657374616d700000000000600082015250565b6114e98161132d565b81146114f457600080fd5b50565b6115008161133f565b811461150b57600080fd5b50565b6115178161134b565b811461152257600080fd5b50565b61152e8161138b565b811461153957600080fd5b5056fea2646970667358221220e5b92502fc69c561e38e5c7516d86079c2165c9d2ecc8a6fe02c834888cf8e3664736f6c63430008040033",
  "linkReferences": {},
  "deployedLinkReferences": {}
}