{
  "_format": "hh-sol-artifact-1",
  "contractName": "FusionCredit",
  "sourceName": "contracts/FusionCredit.sol",
  "abi": [
    {
      "inputs": [
        {
          "internalType": "contract IVerifier",
          "name": "_verifier",
          "type": "address"
        },
        {
          "internalType": "uint256[2]",
          "name": "_pubkey",
          "type": "uint256[2]"
        }
      ],
      "stateMutability": "nonpayable",
      "type": "constructor"
    },
    {
      "inputs": [
        {
          "internalType": "address",
          "name": "_addr",
          "type": "address"
        }
      ],
      "name": "getScore",
      "outputs": [
        {
          "internalType": "uint256",
          "name": "score",
          "type": "uint256"
        },
        {
          "internalType": "uint256",
          "name": "version",
          "type": "uint256"
        },
        {
          "internalType": "uint256",
          "name": "timestamp",
          "type": "uint256"
        }
      ],
      "stateMutability": "view",
      "type": "function"
    },
    {
      "inputs": [
        {
          "internalType": "uint256",
          "name": "",
          "type": "uint256"
        }
      ],
      "name": "pubkey",
      "outputs": [
        {
          "internalType": "uint256",
          "name": "",
          "type": "uint256"
        }
      ],
      "stateMutability": "view",
      "type": "function"
    },
    {
      "inputs": [
        {
          "internalType": "address",
          "name": "",
          "type": "address"
        }
      ],
      "name": "scores",
      "outputs": [
        {
          "internalType": "uint16",
          "name": "score",
          "type": "uint16"
        },
        {
          "internalType": "uint16",
          "name": "version",
          "type": "uint16"
        },
        {
          "internalType": "uint48",
          "name": "timestamp",
          "type": "uint48"
        }
      ],
      "stateMutability": "view",
      "type": "function"
    },
    {
      "inputs": [
        {
          "internalType": "uint256[2]",
          "name": "_pubkey",
          "type": "uint256[2]"
        }
      ],
      "name": "setPubkey",
      "outputs": [],
      "stateMutability": "nonpayable",
      "type": "function"
    },
    {
      "inputs": [
        {
          "internalType": "uint256",
          "name": "score",
          "type": "uint256"
        },
        {
          "internalType": "uint256",
          "name": "version",
          "type": "uint256"
        },
        {
          "internalType": "uint256",
          "name": "timestamp",
          "type": "uint256"
        },
        {
          "internalType": "uint256[8]",
          "name": "proof",
          "type": "uint256[8]"
        }
      ],
      "name": "setScore",
      "outputs": [],
      "stateMutability": "nonpayable",
      "type": "function"
    },
    {
      "inputs": [
        {
          "internalType": "contract IVerifier",
          "name": "_verifier",
          "type": "address"
        }
      ],
      "name": "setVerifier",
      "outputs": [],
      "stateMutability": "nonpayable",
      "type": "function"
    },
    {
      "inputs": [],
      "name": "verifier",
      "outputs": [
        {
          "internalType": "contract IVerifier",
          "name": "",
          "type": "address"
        }
      ],
      "stateMutability": "view",
      "type": "function"
    }
  ],
  "bytecode": "0x60806040523480156200001157600080fd5b50604051620018b6380380620018b68339818101604052810190620000379190620001fc565b336000806101000a81548173ffffffffffffffffffffffffffffffffffffffff021916908373ffffffffffffffffffffffffffffffffffffffff16021790555081600160006101000a81548173ffffffffffffffffffffffffffffffffffffffff021916908373ffffffffffffffffffffffffffffffffffffffff160217905550806002906002620000cb929190620000d4565b5050506200038b565b826002810192821562000106579160200282015b8281111562000105578251825591602001919060010190620000e8565b5b50905062000115919062000119565b5090565b5b80821115620001345760008160009055506001016200011a565b5090565b60006200014f620001498462000266565b6200023d565b905080828560208602820111156200016657600080fd5b60005b858110156200019a57816200017f8882620001e5565b84526020840193506020830192505060018101905062000169565b5050509392505050565b600082601f830112620001b657600080fd5b6002620001c584828562000138565b91505092915050565b600081519050620001df8162000357565b92915050565b600081519050620001f68162000371565b92915050565b600080606083850312156200021057600080fd5b60006200022085828601620001ce565b92505060206200023385828601620001a4565b9150509250929050565b6000620002496200025c565b9050620002578282620002e1565b919050565b6000604051905090565b600067ffffffffffffffff82111562000284576200028362000317565b5b602082029050919050565b60006200029c82620002b7565b9050919050565b6000620002b0826200028f565b9050919050565b600073ffffffffffffffffffffffffffffffffffffffff82169050919050565b6000819050919050565b620002ec8262000346565b810181811067ffffffffffffffff821117156200030e576200030d62000317565b5b80604052505050565b7f4e487b7100000000000000000000000000000000000000000000000000000000600052604160045260246000fd5b6000601f19601f8301169050919050565b6200036281620002a3565b81146200036e57600080fd5b50565b6200037c81620002d7565b81146200038857600080fd5b50565b61151b806200039b6000396000f3fe608060405234801561001057600080fd5b506004361061007d5760003560e01c80635437988d1161005b5780635437988d146100ec57806376dd110f14610108578063a9e5811e1461013a578063d47875d0146101565761007d565b806310104d67146100825780632b7ac3f31461009e5780632cdfb6ae146100bc575b600080fd5b61009c60048036038101906100979190610cec565b610188565b005b6100a66101f5565b6040516100b3919061109e565b60405180910390f35b6100d660048036038101906100d19190610d67565b61021b565b6040516100e39190611170565b60405180910390f35b61010660048036038101906101019190610d3e565b610236565b005b610122600480360381019061011d9190610cc3565b6102d2565b60405161013193929190611139565b60405180910390f35b610154600480360381019061014f9190610d90565b61032a565b005b610170600480360381019061016b9190610cc3565b610a0a565b60405161017f9392919061118b565b60405180910390f35b60008054906101000a900473ffffffffffffffffffffffffffffffffffffffff1673ffffffffffffffffffffffffffffffffffffffff163373ffffffffffffffffffffffffffffffffffffffff16146101e057600080fd5b8060029060026101f1929190610afe565b5050565b600160009054906101000a900473ffffffffffffffffffffffffffffffffffffffff1681565b6002816002811061022b57600080fd5b016000915090505481565b60008054906101000a900473ffffffffffffffffffffffffffffffffffffffff1673ffffffffffffffffffffffffffffffffffffffff163373ffffffffffffffffffffffffffffffffffffffff161461028e57600080fd5b80600160006101000a81548173ffffffffffffffffffffffffffffffffffffffff021916908373ffffffffffffffffffffffffffffffffffffffff16021790555050565b60046020528060005260406000206000915090508060000160009054906101000a900461ffff16908060000160029054906101000a900461ffff16908060000160049054906101000a900465ffffffffffff16905083565b600073ffffffffffffffffffffffffffffffffffffffff16600160009054906101000a900473ffffffffffffffffffffffffffffffffffffffff1673ffffffffffffffffffffffffffffffffffffffff1614156103bc576040517f08c379a00000000000000000000000000000000000000000000000000000000081526004016103b3906110d9565b60405180910390fd5b6000600460003373ffffffffffffffffffffffffffffffffffffffff1673ffffffffffffffffffffffffffffffffffffffff1681526020019081526020016000206040518060600160405290816000820160009054906101000a900461ffff1661ffff1661ffff1681526020016000820160029054906101000a900461ffff1661ffff1661ffff1681526020016000820160049054906101000a900465ffffffffffff1665ffffffffffff1665ffffffffffff16815250509050806020015161ffff168410156104c1576040517f08c379a00000000000000000000000000000000000000000000000000000000081526004016104b8906110b9565b60405180910390fd5b806040015165ffffffffffff16831161050f576040517f08c379a000000000000000000000000000000000000000000000000000000000815260040161050690611119565b60405180910390fd5b60006040518060c001604052808781526020018681526020018581526020013373ffffffffffffffffffffffffffffffffffffffff1681526020016002600060028110610585577f4e487b7100000000000000000000000000000000000000000000000000000000600052603260045260246000fd5b0154815260200160026001600281106105c7577f4e487b7100000000000000000000000000000000000000000000000000000000600052603260045260246000fd5b015481525090506000604051806040016040528085600060088110610615577f4e487b7100000000000000000000000000000000000000000000000000000000600052603260045260246000fd5b6020020151815260200185600160088110610659577f4e487b7100000000000000000000000000000000000000000000000000000000600052603260045260246000fd5b60200201518152509050600060405180604001604052806040518060400160405280886002600881106106b5577f4e487b7100000000000000000000000000000000000000000000000000000000600052603260045260246000fd5b60200201518152602001886003600881106106f9577f4e487b7100000000000000000000000000000000000000000000000000000000600052603260045260246000fd5b6020020151815250815260200160405180604001604052808860046008811061074b577f4e487b7100000000000000000000000000000000000000000000000000000000600052603260045260246000fd5b602002015181526020018860056008811061078f577f4e487b7100000000000000000000000000000000000000000000000000000000600052603260045260246000fd5b6020020151815250815250905060006040518060400160405280876006600881106107e3577f4e487b7100000000000000000000000000000000000000000000000000000000600052603260045260246000fd5b6020020151815260200187600760088110610827577f4e487b7100000000000000000000000000000000000000000000000000000000600052603260045260246000fd5b60200201518152509050600160009054906101000a900473ffffffffffffffffffffffffffffffffffffffff1673ffffffffffffffffffffffffffffffffffffffff1663f398789b848484886040518563ffffffff1660e01b81526004016108929493929190611057565b60206040518083038186803b1580156108aa57600080fd5b505afa1580156108be573d6000803e3d6000fd5b505050506040513d601f19601f820116820180604052508101906108e29190610d15565b610921576040517f08c379a0000000000000000000000000000000000000000000000000000000008152600401610918906110f9565b60405180910390fd5b60405180606001604052808a61ffff1681526020018961ffff1681526020018865ffffffffffff16815250600460003373ffffffffffffffffffffffffffffffffffffffff1673ffffffffffffffffffffffffffffffffffffffff16815260200190815260200160002060008201518160000160006101000a81548161ffff021916908361ffff16021790555060208201518160000160026101000a81548161ffff021916908361ffff16021790555060408201518160000160046101000a81548165ffffffffffff021916908365ffffffffffff160217905550905050505050505050505050565b600080600080600460008673ffffffffffffffffffffffffffffffffffffffff1673ffffffffffffffffffffffffffffffffffffffff1681526020019081526020016000206040518060600160405290816000820160009054906101000a900461ffff1661ffff1661ffff1681526020016000820160029054906101000a900461ffff1661ffff1661ffff1681526020016000820160049054906101000a900465ffffffffffff1665ffffffffffff1665ffffffffffff168152505090508060000151816020015182604001518261ffff1692508161ffff1691508065ffffffffffff169050935093509350509193909250565b8260028101928215610b2d579160200282015b82811115610b2c578251825591602001919060010190610b11565b5b509050610b3a9190610b3e565b5090565b5b80821115610b57576000816000905550600101610b3f565b5090565b6000610b6e610b69846111e7565b6111c2565b90508082856020860282011115610b8457600080fd5b60005b85811015610bb45781610b9a8882610cae565b845260208401935060208301925050600181019050610b87565b5050509392505050565b6000610bd1610bcc8461120d565b6111c2565b90508082856020860282011115610be757600080fd5b60005b85811015610c175781610bfd8882610cae565b845260208401935060208301925050600181019050610bea565b5050509392505050565b600081359050610c3081611489565b92915050565b600082601f830112610c4757600080fd5b6002610c54848285610b5b565b91505092915050565b600082601f830112610c6e57600080fd5b6008610c7b848285610bbe565b91505092915050565b600081519050610c93816114a0565b92915050565b600081359050610ca8816114b7565b92915050565b600081359050610cbd816114ce565b92915050565b600060208284031215610cd557600080fd5b6000610ce384828501610c21565b91505092915050565b600060408284031215610cfe57600080fd5b6000610d0c84828501610c36565b91505092915050565b600060208284031215610d2757600080fd5b6000610d3584828501610c84565b91505092915050565b600060208284031215610d5057600080fd5b6000610d5e84828501610c99565b91505092915050565b600060208284031215610d7957600080fd5b6000610d8784828501610cae565b91505092915050565b6000806000806101608587031215610da757600080fd5b6000610db587828801610cae565b9450506020610dc687828801610cae565b9350506040610dd787828801610cae565b9250506060610de887828801610c5d565b91505092959194509250565b6000610e008383610e7b565b60408301905092915050565b6000610e18838361102a565b60208301905092915050565b610e2d81611251565b610e378184611299565b9250610e4282611233565b8060005b83811015610e73578151610e5a8782610df4565b9650610e6583611272565b925050600181019050610e46565b505050505050565b610e848161125c565b610e8e81846112a4565b9250610e998261123d565b8060005b83811015610eca578151610eb18782610e0c565b9650610ebc8361127f565b925050600181019050610e9d565b505050505050565b610edb8161125c565b610ee581846112af565b9250610ef08261123d565b8060005b83811015610f21578151610f088782610e0c565b9650610f138361127f565b925050600181019050610ef4565b505050505050565b610f3281611267565b610f3c81846112ba565b9250610f4782611247565b8060005b83811015610f78578151610f5f8782610e0c565b9650610f6a8361128c565b925050600181019050610f4b565b505050505050565b610f8981611350565b82525050565b6000610f9c6019836112c5565b9150610fa7826113e5565b602082019050919050565b6000610fbf6010836112c5565b9150610fca8261140e565b602082019050919050565b6000610fe2600f836112c5565b9150610fed82611437565b602082019050919050565b6000611005601b836112c5565b915061101082611460565b602082019050919050565b61102481611306565b82525050565b61103381611334565b82525050565b61104281611334565b82525050565b6110518161133e565b82525050565b60006101c08201905061106d6000830187610ed2565b61107a6040830186610e24565b61108760c0830185610ed2565b611095610100830184610f29565b95945050505050565b60006020820190506110b36000830184610f80565b92915050565b600060208201905081810360008301526110d281610f8f565b9050919050565b600060208201905081810360008301526110f281610fb2565b9050919050565b6000602082019050818103600083015261111281610fd5565b9050919050565b6000602082019050818103600083015261113281610ff8565b9050919050565b600060608201905061114e600083018661101b565b61115b602083018561101b565b6111686040830184611048565b949350505050565b60006020820190506111856000830184611039565b92915050565b60006060820190506111a06000830186611039565b6111ad6020830185611039565b6111ba6040830184611039565b949350505050565b60006111cc6111dd565b90506111d88282611374565b919050565b6000604051905090565b600067ffffffffffffffff821115611202576112016113a5565b5b602082029050919050565b600067ffffffffffffffff821115611228576112276113a5565b5b602082029050919050565b6000819050919050565b6000819050919050565b6000819050919050565b600060029050919050565b600060029050919050565b600060069050919050565b6000602082019050919050565b6000602082019050919050565b6000602082019050919050565b600081905092915050565b600081905092915050565b600081905092915050565b600081905092915050565b600082825260208201905092915050565b60006112e182611314565b9050919050565b60008115159050919050565b60006112ff826112d6565b9050919050565b600061ffff82169050919050565b600073ffffffffffffffffffffffffffffffffffffffff82169050919050565b6000819050919050565b600065ffffffffffff82169050919050565b600061135b82611362565b9050919050565b600061136d82611314565b9050919050565b61137d826113d4565b810181811067ffffffffffffffff8211171561139c5761139b6113a5565b5b80604052505050565b7f4e487b7100000000000000000000000000000000000000000000000000000000600052604160045260246000fd5b6000601f19601f8301169050919050565b7f43616e277420757365206561726c6965722076657273696f6e00000000000000600082015250565b7f5665726966696572206e6f742073657400000000000000000000000000000000600082015250565b7f50726f6f66206e6f742076616c69640000000000000000000000000000000000600082015250565b7f43616e277420757365206561726c6965722074696d657374616d700000000000600082015250565b611492816112d6565b811461149d57600080fd5b50565b6114a9816112e8565b81146114b457600080fd5b50565b6114c0816112f4565b81146114cb57600080fd5b50565b6114d781611334565b81146114e257600080fd5b5056fea264697066735822122060731b351538465796258fd9e61951e34c2a0a0305efb25cf22442dd8bf21ce364736f6c63430008040033",
  "linkReferences": {},
  "deployedLinkReferences": {}
}